:10790000F894112494B714BE892F8D7011F0892F2B
:107910001AD18AB183608AB98BB18C7F8BB982E02E
:107920008093C00088E18093C10086E08093C2000C
:1079300080E18093C4008EE0EFD0CC24DD24882445
:107940008394B5E0AB2EA1E19A2EF3E0BF2ED8D000
:10795000813461F4D5D0082FE8D0023829F10138FC
:1079600011F485E001C083E0C3D0BFC0823411F4BC
:1079700084E103C0853419F485E0DDD0B6C08535D7
:1079800079F4BED0E82EFF24BBD0082F10E0102FD2
:1079900000270E291F29000F111FC7D06801A5C09D
:1079A000863521F484E0C7D080E0DECF843609F04C
:1079B00067C0A6D0A5D0082FA3D0182F863441F4D5
:1079C00020E0C21620E7D20618F4F601B7BEE8950B
:1079D000C0E0D1E095D089930C17E1F70150C02F9A
:1079E000D0E0163409F02EC0F0E0CF16F0E7DF0645
:1079F00018F0F601B7BEE89598D007B600FCFDCFA9
:107A0000A601A0E0B1E02C9130E011968C91119785
:107A100090E0982F8827822B932B1296FA010C0165
:107A200087BEE89511244E5F5F4FF1E0A038BF0795
:107A300051F7F601A7BEE89507B600FCFDCF97BE4B
:107A4000E89553C0153409F050C06FD09E012F5FE8
:107A5000822F9601E0E0F1E090E080509F4F0CC053
:107A6000A8954081F999FECF319632BD21BD40BD28
:107A7000FA9AF99A2F5F3F4FE817F90789F735C04F
:107A8000843729F53DD03CD0F82E3AD0082F4DD080
:107A9000063439F4F60185916F012AD0FA94D1F7B2
:107AA00024C0053411F5C601EF2C0CC0F999FECFA6
:107AB0008C010F5F1F4F92BD81BDF89A80B518D021
:107AC000EA94C801EE2091F7CF0CD11C0EC0853787
:107AD00039F42BD08EE10CD085E90AD08FE044CF69
:107AE000813511F488E018D020D080E101D02FCF6B
:107AF000982F8091C00085FFFCCF9093C600089519
:107B00008091C00087FFFCCF8091C00084FD01C040
:107B1000A8958091C6000895E0E6F0E098E1908392
:107B20008083089588E0F8DFFFCFEADF803209F034
:107B3000F9DF84E1DDCF1F93182FE2DF1150E9F761
:107B4000F4DF1F910895182F80E0E6DF212EEE2745
:047B5000FF2709946E
:027FFE0000057C
:040000030000790080
:00000001FF
